:020000020000FC
:1000000019C018951895189518951895189518955C
:100010001895189518951895189518951895189578
:100020001895189518951895189518951895189568
:10003000189518950FEF0DBF04E00EBF209A219A76
:100040000FEF0AB908EC8DD000E30BB988D082D04D
:100050000AE087D000E30BB982D07CD008EC8ED0C8
:1000600000E30BB97CD076D008EC88D008E30BB95C
:1000700076D070D000E582D008E00BB970D06AD09D
:1000800000E57CD001E00BB96AD064D004E069D00F
:1000900006E00BB964D05ED000E570D00FE00BB97C
:1000A0005ED058D000E56AD000E80BB958D052D0E5
:1000B00000E564D000E50BB9289A299A63D0299805
:1000C00061D004E64ED001E40BB9289A299A5AD09F
:1000D000299858D004E645D004E50BB9289A299A06
:1000E00051D029984FD004E63CD002E50BB9289AAC
:1000F000299A48D0299846D004E633D009E50BB9AF
:10010000289A299A3FD029983DD004E62AD00BE4BA
:100110000BB9289A299A36D0299834D004E621D0F0
:1001200004E30BB9289A299A2DD029982BD004E6FC
:1001300018D000E30BB9289A299A24D0299822D004
:1001400004E60FD004E30BB9289A299A1BD029980A
:1001500019D0FFCF299A16D0289A14D0089528983C
:10016000299803D00A95E9F70895CF93DF93CBE957
:10017000DFE02197F1F7DF91CF91089503D00A9541
:0E018000E9F708950F930F910F930F910895D3
:00000001FF
